{
  "contractName": "BookLibrary",
  "abi": [
    {
      "constant": true,
      "inputs": [
        {
          "internalType": "uint256",
          "name": "",
          "type": "uint256"
        }
      ],
      "name": "Book",
      "outputs": [
        {
          "internalType": "address",
          "name": "",
          "type": "address"
        }
      ],
      "payable": false,
      "stateMutability": "view",
      "type": "function"
    },
    {
      "constant": false,
      "inputs": [
        {
          "internalType": "uint256",
          "name": "BookID",
          "type": "uint256"
        },
        {
          "internalType": "uint256",
          "name": "Days",
          "type": "uint256"
        }
      ],
      "name": "BookBorrow",
      "outputs": [
        {
          "internalType": "uint256",
          "name": "",
          "type": "uint256"
        }
      ],
      "payable": false,
      "stateMutability": "nonpayable",
      "type": "function"
    },
    {
      "constant": true,
      "inputs": [],
      "name": "getBorrowID",
      "outputs": [
        {
          "internalType": "address[20]",
          "name": "",
          "type": "address[20]"
        }
      ],
      "payable": false,
      "stateMutability": "view",
      "type": "function"
    }
  ],
  "bytecode": "0x6080604052600160145534801561001557600080fd5b506102c5806100256000396000f3fe608060405234801561001057600080fd5b50600436106100415760003560e01c8063022481ff1461004657806345712866146100b4578063496f6ce1146100fa575b600080fd5b6100726004803603602081101561005c57600080fd5b8101908080359060200190929190505050610146565b604051808273ffffffffffffffffffffffffffffffffffffffff1673ffffffffffffffffffffffffffffffffffffffff16815260200191505060405180910390f35b6100bc610179565b6040518082601460200280838360005b838110156100e75780820151818401526020810190506100cc565b5050505090500191505060405180910390f35b6101306004803603604081101561011057600080fd5b8101908080359060200190929190803590602001909291905050506101fa565b6040518082815260200191505060405180910390f35b6000816014811061015357fe5b016000915054906101000a900473ffffffffffffffffffffffffffffffffffffffff1681565b61018161026d565b60006014806020026040519081016040528092919082601480156101f0576020028201915b8160009054906101000a900473ffffffffffffffffffffffffffffffffffffffff1673ffffffffffffffffffffffffffffffffffffffff16815260200190600101908083116101a6575b5050505050905090565b60006014831015801561020e575060145482145b61021757600080fd5b336000846014811061022557fe5b0160006101000a81548173ffffffffffffffffffffffffffffffffffffffff021916908373ffffffffffffffffffffffffffffffffffffffff16021790555082905092915050565b60405180610280016040528060149060208202803883398082019150509050509056fea265627a7a72315820220612fc66fcb4680dd3d4415ecd26f537492219f151a24442f80288a33fdf0864736f6c63430005100032",
  "source": "pragma solidity ^0.5.16;\r\n\r\ncontract BookLibrary{\r\n    address[20] public Book;\r\nuint DayCounter=1;\r\n    //book borrow on a day\r\nfunction BookBorrow( uint BookID, uint Days) public returns(uint){\r\n    require(BookID>=Book.length && Days==DayCounter);\r\n    Book[BookID]=msg.sender;\r\n    return BookID;\r\n}\r\nfunction getBorrowID() public view returns(address[20]memory){\r\n    return Book;\r\n}\r\n}",
  "sourcePath": "D:/Downlod Here/BooksLibrary/contracts/BookLibrary.sol",
  "compiler": {
    "name": "solc",
    "version": "0.5.16+commit.9c3226ce.Emscripten.clang"
  },
  "schemaVersion": "3.0.22",
  "updatedAt": "2020-06-29T21:02:01.307Z",
  "networkType": "ethereum",
  "devdoc": {
    "methods": {}
  },
  "userdoc": {
    "methods": {}
  }
}